{
  "contractName": "Collectible",
  "abi": [
    {
      "inputs": [
        {
          "internalType": "uint256",
          "name": "_commission",
          "type": "uint256"
        },
        {
          "internalType": "uint256",
          "name": "_refPrice",
          "type": "uint256"
        }
      ],
      "stateMutability": "nonpayable",
      "type": "constructor"
    },
    {
      "anonymous": false,
      "inputs": [
        {
          "indexed": true,
          "internalType": "address",
          "name": "previousOwner",
          "type": "address"
        },
        {
          "indexed": true,
          "internalType": "address",
          "name": "newOwner",
          "type": "address"
        }
      ],
      "name": "OwnershipTransferred",
      "type": "event"
    },
    {
      "inputs": [],
      "name": "channelId",
      "outputs": [
        {
          "internalType": "uint256",
          "name": "_value",
          "type": "uint256"
        }
      ],
      "stateMutability": "view",
      "type": "function",
      "constant": true
    },
    {
      "inputs": [
        {
          "internalType": "uint256",
          "name": "",
          "type": "uint256"
        }
      ],
      "name": "channels",
      "outputs": [
        {
          "internalType": "uint256",
          "name": "id",
          "type": "uint256"
        },
        {
          "internalType": "string",
          "name": "name",
          "type": "string"
        },
        {
          "internalType": "string",
          "name": "bio",
          "type": "string"
        },
        {
          "internalType": "address",
          "name": "creator",
          "type": "address"
        },
        {
          "internalType": "uint256",
          "name": "subscription_price",
          "type": "uint256"
        },
        {
          "internalType": "string",
          "name": "avatar",
          "type": "string"
        },
        {
          "internalType": "string",
          "name": "cover",
          "type": "string"
        },
        {
          "internalType": "bool",
          "name": "approved",
          "type": "bool"
        },
        {
          "internalType": "uint256",
          "name": "time",
          "type": "uint256"
        },
        {
          "internalType": "string",
          "name": "category",
          "type": "string"
        }
      ],
      "stateMutability": "view",
      "type": "function",
      "constant": true
    },
    {
      "inputs": [],
      "name": "owner",
      "outputs": [
        {
          "internalType": "address",
          "name": "",
          "type": "address"
        }
      ],
      "stateMutability": "view",
      "type": "function",
      "constant": true
    },
    {
      "inputs": [
        {
          "internalType": "string",
          "name": "",
          "type": "string"
        }
      ],
      "name": "refCodeOwner",
      "outputs": [
        {
          "internalType": "address",
          "name": "",
          "type": "address"
        }
      ],
      "stateMutability": "view",
      "type": "function",
      "constant": true
    },
    {
      "inputs": [],
      "name": "renounceOwnership",
      "outputs": [],
      "stateMutability": "nonpayable",
      "type": "function"
    },
    {
      "inputs": [
        {
          "internalType": "address",
          "name": "newOwner",
          "type": "address"
        }
      ],
      "name": "transferOwnership",
      "outputs": [],
      "stateMutability": "nonpayable",
      "type": "function"
    },
    {
      "inputs": [
        {
          "internalType": "address",
          "name": "",
          "type": "address"
        },
        {
          "internalType": "uint256",
          "name": "",
          "type": "uint256"
        }
      ],
      "name": "userChannels",
      "outputs": [
        {
          "internalType": "uint256",
          "name": "id",
          "type": "uint256"
        },
        {
          "internalType": "string",
          "name": "name",
          "type": "string"
        },
        {
          "internalType": "string",
          "name": "bio",
          "type": "string"
        },
        {
          "internalType": "address",
          "name": "creator",
          "type": "address"
        },
        {
          "internalType": "uint256",
          "name": "subscription_price",
          "type": "uint256"
        },
        {
          "internalType": "string",
          "name": "avatar",
          "type": "string"
        },
        {
          "internalType": "string",
          "name": "cover",
          "type": "string"
        },
        {
          "internalType": "bool",
          "name": "approved",
          "type": "bool"
        },
        {
          "internalType": "uint256",
          "name": "time",
          "type": "uint256"
        },
        {
          "internalType": "string",
          "name": "category",
          "type": "string"
        }
      ],
      "stateMutability": "view",
      "type": "function",
      "constant": true
    },
    {
      "inputs": [
        {
          "internalType": "address",
          "name": "",
          "type": "address"
        }
      ],
      "name": "userRefCode",
      "outputs": [
        {
          "internalType": "string",
          "name": "",
          "type": "string"
        }
      ],
      "stateMutability": "view",
      "type": "function",
      "constant": true
    },
    {
      "inputs": [
        {
          "internalType": "address",
          "name": "",
          "type": "address"
        }
      ],
      "name": "user_funds",
      "outputs": [
        {
          "internalType": "uint256",
          "name": "",
          "type": "uint256"
        }
      ],
      "stateMutability": "view",
      "type": "function",
      "constant": true
    },
    {
      "inputs": [],
      "name": "videoId",
      "outputs": [
        {
          "internalType": "uint256",
          "name": "_value",
          "type": "uint256"
        }
      ],
      "stateMutability": "view",
      "type": "function",
      "constant": true
    },
    {
      "inputs": [
        {
          "internalType": "address",
          "name": "",
          "type": "address"
        },
        {
          "internalType": "uint256",
          "name": "",
          "type": "uint256"
        }
      ],
      "name": "wishList",
      "outputs": [
        {
          "internalType": "uint256",
          "name": "",
          "type": "uint256"
        }
      ],
      "stateMutability": "view",
      "type": "function",
      "constant": true
    },
    {
      "inputs": [
        {
          "internalType": "string",
          "name": "name",
          "type": "string"
        },
        {
          "internalType": "string",
          "name": "bio",
          "type": "string"
        },
        {
          "internalType": "uint256",
          "name": "price",
          "type": "uint256"
        },
        {
          "internalType": "string",
          "name": "avatar",
          "type": "string"
        },
        {
          "internalType": "string",
          "name": "cover",
          "type": "string"
        },
        {
          "internalType": "string",
          "name": "_category",
          "type": "string"
        }
      ],
      "name": "createChannel",
      "outputs": [],
      "stateMutability": "nonpayable",
      "type": "function"
    },
    {
      "inputs": [
        {
          "components": [
            {
              "internalType": "string",
              "name": "name",
              "type": "string"
            },
            {
              "internalType": "string",
              "name": "description",
              "type": "string"
            },
            {
              "internalType": "string",
              "name": "category",
              "type": "string"
            },
            {
              "internalType": "string",
              "name": "genre",
              "type": "string"
            },
            {
              "internalType": "string",
              "name": "_type",
              "type": "string"
            },
            {
              "internalType": "string",
              "name": "url",
              "type": "string"
            },
            {
              "internalType": "string",
              "name": "preview",
              "type": "string"
            },
            {
              "internalType": "string",
              "name": "poster",
              "type": "string"
            },
            {
              "internalType": "uint256",
              "name": "duration",
              "type": "uint256"
            },
            {
              "internalType": "bool",
              "name": "premium",
              "type": "bool"
            }
          ],
          "internalType": "struct Collectible.MetaData",
          "name": "data",
          "type": "tuple"
        },
        {
          "internalType": "uint256",
          "name": "channel_id",
          "type": "uint256"
        }
      ],
      "name": "uploadVideo",
      "outputs": [],
      "stateMutability": "nonpayable",
      "type": "function"
    },
    {
      "inputs": [],
      "name": "allChannels",
      "outputs": [
        {
          "components": [
            {
              "internalType": "uint256",
              "name": "id",
              "type": "uint256"
            },
            {
              "internalType": "string",
              "name": "name",
              "type": "string"
            },
            {
              "internalType": "string",
              "name": "bio",
              "type": "string"
            },
            {
              "internalType": "address",
              "name": "creator",
              "type": "address"
            },
            {
              "internalType": "uint256",
              "name": "subscription_price",
              "type": "uint256"
            },
            {
              "internalType": "string",
              "name": "avatar",
              "type": "string"
            },
            {
              "internalType": "string",
              "name": "cover",
              "type": "string"
            },
            {
              "internalType": "bool",
              "name": "approved",
              "type": "bool"
            },
            {
              "components": [
                {
                  "internalType": "uint256",
                  "name": "id",
                  "type": "uint256"
                },
                {
                  "internalType": "uint256",
                  "name": "channel_id",
                  "type": "uint256"
                },
                {
                  "components": [
                    {
                      "internalType": "string",
                      "name": "name",
                      "type": "string"
                    },
                    {
                      "internalType": "string",
                      "name": "description",
                      "type": "string"
                    },
                    {
                      "internalType": "string",
                      "name": "category",
                      "type": "string"
                    },
                    {
                      "internalType": "string",
                      "name": "genre",
                      "type": "string"
                    },
                    {
                      "internalType": "string",
                      "name": "_type",
                      "type": "string"
                    },
                    {
                      "internalType": "string",
                      "name": "url",
                      "type": "string"
                    },
                    {
                      "internalType": "string",
                      "name": "preview",
                      "type": "string"
                    },
                    {
                      "internalType": "string",
                      "name": "poster",
                      "type": "string"
                    },
                    {
                      "internalType": "uint256",
                      "name": "duration",
                      "type": "uint256"
                    },
                    {
                      "internalType": "bool",
                      "name": "premium",
                      "type": "bool"
                    }
                  ],
                  "internalType": "struct Collectible.MetaData",
                  "name": "data",
                  "type": "tuple"
                },
                {
                  "internalType": "bool",
                  "name": "approved",
                  "type": "bool"
                },
                {
                  "internalType": "bool",
                  "name": "blocked",
                  "type": "bool"
                },
                {
                  "internalType": "uint256",
                  "name": "time",
                  "type": "uint256"
                }
              ],
              "internalType": "struct Collectible.Video[]",
              "name": "videos",
              "type": "tuple[]"
            },
            {
              "components": [
                {
                  "internalType": "address",
                  "name": "_address",
                  "type": "address"
                },
                {
                  "internalType": "uint256",
                  "name": "created_at",
                  "type": "uint256"
                }
              ],
              "internalType": "struct Collectible.User[]",
              "name": "subscribers",
              "type": "tuple[]"
            },
            {
              "internalType": "uint256",
              "name": "time",
              "type": "uint256"
            },
            {
              "internalType": "string",
              "name": "category",
              "type": "string"
            }
          ],
          "internalType": "struct Collectible.Channel[]",
          "name": "result",
          "type": "tuple[]"
        }
      ],
      "stateMutability": "view",
      "type": "function",
      "constant": true
    },
    {
      "inputs": [
        {
          "internalType": "uint256[]",
          "name": "_ids",
          "type": "uint256[]"
        }
      ],
      "name": "approveVideo",
      "outputs": [],
      "stateMutability": "nonpayable",
      "type": "function"
    },
    {
      "inputs": [
        {
          "internalType": "uint256",
          "name": "channel_id",
          "type": "uint256"
        },
        {
          "internalType": "string",
          "name": "code",
          "type": "string"
        }
      ],
      "name": "subscribe",
      "outputs": [],
      "stateMutability": "payable",
      "type": "function",
      "payable": true
    },
    {
      "inputs": [
        {
          "internalType": "uint256[]",
          "name": "_ids",
          "type": "uint256[]"
        }
      ],
      "name": "blockVideos",
      "outputs": [],
      "stateMutability": "nonpayable",
      "type": "function"
    },
    {
      "inputs": [
        {
          "internalType": "uint256",
          "name": "channel_id",
          "type": "uint256"
        },
        {
          "internalType": "uint256",
          "name": "video_id",
          "type": "uint256"
        }
      ],
      "name": "addToWishList",
      "outputs": [],
      "stateMutability": "nonpayable",
      "type": "function"
    },
    {
      "inputs": [
        {
          "internalType": "address",
          "name": "_address",
          "type": "address"
        }
      ],
      "name": "get_wishlist",
      "outputs": [
        {
          "components": [
            {
              "internalType": "uint256",
              "name": "id",
              "type": "uint256"
            },
            {
              "internalType": "uint256",
              "name": "channel_id",
              "type": "uint256"
            },
            {
              "components": [
                {
                  "internalType": "string",
                  "name": "name",
                  "type": "string"
                },
                {
                  "internalType": "string",
                  "name": "description",
                  "type": "string"
                },
                {
                  "internalType": "string",
                  "name": "category",
                  "type": "string"
                },
                {
                  "internalType": "string",
                  "name": "genre",
                  "type": "string"
                },
                {
                  "internalType": "string",
                  "name": "_type",
                  "type": "string"
                },
                {
                  "internalType": "string",
                  "name": "url",
                  "type": "string"
                },
                {
                  "internalType": "string",
                  "name": "preview",
                  "type": "string"
                },
                {
                  "internalType": "string",
                  "name": "poster",
                  "type": "string"
                },
                {
                  "internalType": "uint256",
                  "name": "duration",
                  "type": "uint256"
                },
                {
                  "internalType": "bool",
                  "name": "premium",
                  "type": "bool"
                }
              ],
              "internalType": "struct Collectible.MetaData",
              "name": "data",
              "type": "tuple"
            },
            {
              "internalType": "bool",
              "name": "approved",
              "type": "bool"
            },
            {
              "internalType": "bool",
              "name": "blocked",
              "type": "bool"
            },
            {
              "internalType": "uint256",
              "name": "time",
              "type": "uint256"
            }
          ],
          "internalType": "struct Collectible.Video[]",
          "name": "result",
          "type": "tuple[]"
        }
      ],
      "stateMutability": "view",
      "type": "function",
      "constant": true
    },
    {
      "inputs": [
        {
          "internalType": "uint256",
          "name": "video_id",
          "type": "uint256"
        }
      ],
      "name": "video",
      "outputs": [
        {
          "components": [
            {
              "internalType": "uint256",
              "name": "id",
              "type": "uint256"
            },
            {
              "internalType": "uint256",
              "name": "channel_id",
              "type": "uint256"
            },
            {
              "components": [
                {
                  "internalType": "string",
                  "name": "name",
                  "type": "string"
                },
                {
                  "internalType": "string",
                  "name": "description",
                  "type": "string"
                },
                {
                  "internalType": "string",
                  "name": "category",
                  "type": "string"
                },
                {
                  "internalType": "string",
                  "name": "genre",
                  "type": "string"
                },
                {
                  "internalType": "string",
                  "name": "_type",
                  "type": "string"
                },
                {
                  "internalType": "string",
                  "name": "url",
                  "type": "string"
                },
                {
                  "internalType": "string",
                  "name": "preview",
                  "type": "string"
                },
                {
                  "internalType": "string",
                  "name": "poster",
                  "type": "string"
                },
                {
                  "internalType": "uint256",
                  "name": "duration",
                  "type": "uint256"
                },
                {
                  "internalType": "bool",
                  "name": "premium",
                  "type": "bool"
                }
              ],
              "internalType": "struct Collectible.MetaData",
              "name": "data",
              "type": "tuple"
            },
            {
              "internalType": "bool",
              "name": "approved",
              "type": "bool"
            },
            {
              "internalType": "bool",
              "name": "blocked",
              "type": "bool"
            },
            {
              "internalType": "uint256",
              "name": "time",
              "type": "uint256"
            }
          ],
          "internalType": "struct Collectible.Video",
          "name": "_video",
          "type": "tuple"
        }
      ],
      "stateMutability": "view",
      "type": "function",
      "constant": true
    },
    {
      "inputs": [
        {
          "internalType": "string",
          "name": "code",
          "type": "string"
        }
      ],
      "name": "addRefCode",
      "outputs": [],
      "stateMutability": "nonpayable",
      "type": "function"
    },
    {
      "inputs": [],
      "name": "claimFunds",
      "outputs": [],
      "stateMutability": "nonpayable",
      "type": "function"
    },
    {
      "inputs": [],
      "name": "activityLogs",
      "outputs": [
        {
          "components": [
            {
              "internalType": "address",
              "name": "_address",
              "type": "address"
            },
            {
              "internalType": "uint256",
              "name": "chanel_id",
              "type": "uint256"
            },
            {
              "internalType": "uint256",
              "name": "video_id",
              "type": "uint256"
            },
            {
              "internalType": "uint256",
              "name": "_time",
              "type": "uint256"
            },
            {
              "internalType": "string",
              "name": "_status",
              "type": "string"
            }
          ],
          "internalType": "struct Collectible.Activity[]",
          "name": "result",
          "type": "tuple[]"
        }
      ],
      "stateMutability": "view",
      "type": "function",
      "constant": true
    },
    {
      "inputs": [],
      "name": "connectWalletHandler",
      "outputs": [],
      "stateMutability": "nonpayable",
      "type": "function"
    },
    {
      "inputs": [
        {
          "internalType": "uint256",
          "name": "channel_id",
          "type": "uint256"
        }
      ],
      "name": "actualPrice",
      "outputs": [
        {
          "internalType": "uint256",
          "name": "_actualPrice",
          "type": "uint256"
        }
      ],
      "stateMutability": "view",
      "type": "function",
      "constant": true
    }
  ],
  "bytecode": "0x60806040523480156200001157600080fd5b5060405162006238380380620062388339818101604052810190620000379190620001b0565b620000576200004b620000a460201b60201c565b620000ac60201b60201c565b816002819055508060018190555060016009604051620000779062000252565b908152602001604051809103902060006101000a81548160ff021916908315150217905550505062000269565b600033905090565b60008060009054906101000a900473ffffffffffffffffffffffffffffffffffffffff169050816000806101000a81548173ffffffffffffffffffffffffffffffffffffffff021916908373ffffffffffffffffffffffffffffffffffffffff1602179055508173ffffffffffffffffffffffffffffffffffffffff168173ffffffffffffffffffffffffffffffffffffffff167f8be0079c531659141344cd1fd0a4f28419497f9722a3daafe3b4186f6b6457e060405160405180910390a35050565b600080fd5b6000819050919050565b6200018a8162000175565b81146200019657600080fd5b50565b600081519050620001aa816200017f565b92915050565b60008060408385031215620001ca57620001c962000170565b5b6000620001da8582860162000199565b9250506020620001ed8582860162000199565b9150509250929050565b600081905092915050565b7f6f527034636648586650546a2b4d4e73614c74454937497948416f3d00000000600082015250565b60006200023a601c83620001f7565b9150620002478262000202565b601c82019050919050565b60006200025f826200022b565b9150819050919050565b615fbf80620002796000396000f3fe6080604052600436106101665760003560e01c806386d4fbd3116100d1578063d6269b601161008a578063e2cee54411610064578063e2cee54414610536578063e5949b5d14610561578063ef04d810146105a7578063f2fde38b146105d057610166565b8063d6269b601461047f578063d87ba649146104bc578063dea5a630146104f957610166565b806386d4fbd31461037c5780638da5cb5b146103985780639fb87da6146103c3578063ac30777314610400578063c5c95e9014610417578063d2e0fd6b1461045457610166565b806360453e791161012357806360453e79146102795780636b0a89d0146102a25780636c1992ea146102cb578063713e4d5d146102f6578063715018a61461031f57806385e684f31461033657610166565b8063029efebb1461016b578063050fd24314610194578063169aef4a146101bd57806329fe3018146101fa57806343448c9d1461022557806349ca72e914610262575b600080fd5b34801561017757600080fd5b50610192600480360381019061018d919061442e565b6105f9565b005b3480156101a057600080fd5b506101bb60048036038101906101b69190614744565b6106e6565b005b3480156101c957600080fd5b506101e460048036038101906101df91906147a0565b610a9b565b6040516101f191906149fe565b60405180910390f35b34801561020657600080fd5b5061020f6110ad565b60405161021c9190614a2f565b60405180910390f35b34801561023157600080fd5b5061024c60048036038101906102479190614aa8565b6110b9565b6040516102599190614a2f565b60405180910390f35b34801561026e57600080fd5b506102776110ea565b005b34801561028557600080fd5b506102a0600480360381019061029b9190614ae8565b611202565b005b3480156102ae57600080fd5b506102c960048036038101906102c49190614c01565b6114c2565b005b3480156102d757600080fd5b506102e06117c4565b6040516102ed9190614d91565b60405180910390f35b34801561030257600080fd5b5061031d6004803603810190610318919061442e565b611984565b005b34801561032b57600080fd5b50610334611ba0565b005b34801561034257600080fd5b5061035d60048036038101906103589190614aa8565b611bb4565b6040516103739a99989796959493929190614e1b565b60405180910390f35b61039660048036038101906103919190614eda565b611efa565b005b3480156103a457600080fd5b506103ad61252c565b6040516103ba9190614f36565b60405180910390f35b3480156103cf57600080fd5b506103ea60048036038101906103e59190614c01565b612555565b6040516103f79190614f36565b60405180910390f35b34801561040c57600080fd5b5061041561259e565b005b34801561042357600080fd5b5061043e60048036038101906104399190614f51565b6126ed565b60405161044b9190614f7e565b60405180910390f35b34801561046057600080fd5b5061046961278d565b60405161047691906153b9565b60405180910390f35b34801561048b57600080fd5b506104a660048036038101906104a191906147a0565b613210565b6040516104b39190614a2f565b60405180910390f35b3480156104c857600080fd5b506104e360048036038101906104de9190614f51565b613252565b6040516104f09190614a2f565b60405180910390f35b34801561050557600080fd5b50610520600480360381019061051b9190614f51565b61326a565b60405161052d9190615461565b60405180910390f35b34801561054257600080fd5b5061054b6133c0565b6040516105589190614a2f565b60405180910390f35b34801561056d57600080fd5b50610588600480360381019061058391906147a0565b6133cc565b60405161059e9a99989796959493929190614e1b565b60405180910390f35b3480156105b357600080fd5b506105ce60048036038101906105c99190615483565b6136f5565b005b3480156105dc57600080fd5b506105f760048036038101906105f29190614f51565b6139e1565b005b610601613a64565b6000600190505b6106126006613ae2565b81116106e2576000600a6000838152602001908152602001600020905060005b81600801805490508110156106cd5760016106748584600801848154811061065d5761065c6154c3565b5b90600052602060002090600e020160000154613af0565b036106ba576001826008018281548110610691576106906154c3565b5b90600052602060002090600e0201600c0160016101000a81548160ff0219169083151502179055505b80806106c590615521565b915050610632565b505080806106da90615521565b915050610608565b5050565b806000600a6000838152602001908152602001600020905060008160030160009054906101000a900473ffffffffffffffffffffffffffffffffffffffff1690508073ffffffffffffffffffffffffffffffffffffffff163373ffffffffffffffffffffffffffffffffffffffff1614610795576040517f08c379a000000000000000000000000000000000000000000000000000000000815260040161078c906155db565b60405180910390fd5b61079f6005613b4b565b60006107ab6005613ae2565b905060006040518060c001604052808381526020018781526020018881526020016000151581526020016000151581526020014281525090506000600a60008881526020019081526020016000209050806008018290806001815401808255809150506001900390600052602060002090600e02016000909190919091506000820151816000015560208201518160010155604082015181600201600082015181600001908161085b9190615807565b5060208201518160010190816108719190615807565b5060408201518160020190816108879190615807565b50606082015181600301908161089d9190615807565b5060808201518160040190816108b39190615807565b5060a08201518160050190816108c99190615807565b5060c08201518160060190816108df9190615807565b5060e08201518160070190816108f59190615807565b5061010082015181600801556101208201518160090160006101000a81548160ff0219169083151502179055505050606082015181600c0160006101000a81548160ff021916908315150217905550608082015181600c0160016101000a81548160ff02191690831515021790555060a082015181600d0155505060046040518060a00160405280610985613b61565b73ffffffffffffffffffffffffffffffffffffffff1681526020018981526020018581526020014281526020016040518060400160405280601181526020017f4e657720566964656f2055706c6f646564000000000000000000000000000000815250815250908060018154018082558091505060019003906000526020600020906005020160009091909190915060008201518160000160006101000a81548173ffffffffffffffffffffffffffffffffffffffff021916908373ffffffffffffffffffffffffffffffffffffffff1602179055506020820151816001015560408201518160020155606082015181600301556080820151816004019081610a8e9190615807565b5050505050505050505050565b610aa3613cd1565b6000600190505b610ab46006613ae2565b81116110a75760005b600a60008381526020019081526020016000206008018054905081101561109357600a60008381526020019081526020016000206008018181548110610b0657610b056154c3565b5b90600052602060002090600e020160000154840361108057600a60008381526020019081526020016000206008018181548110610b4657610b456154c3565b5b90600052602060002090600e02016040518060c001604052908160008201548152602001600182015481526020016002820160405180610140016040529081600082018054610b949061562a565b80601f0160208091040260200160405190810160405280929190818152602001828054610bc09061562a565b8015610c0d5780601f10610be257610100808354040283529160200191610c0d565b820191906000526020600020905b815481529060010190602001808311610bf057829003601f168201915b50505050508152602001600182018054610c269061562a565b80601f0160208091040260200160405190810160405280929190818152602001828054610c529061562a565b8015610c9f5780601f10610c7457610100808354040283529160200191610c9f565b820191906000526020600020905b815481529060010190602001808311610c8257829003601f168201915b50505050508152602001600282018054610cb89061562a565b80601f0160208091040260200160405190810160405280929190818152602001828054610ce49061562a565b8015610d315780601f10610d0657610100808354040283529160200191610d31565b820191906000526020600020905b815481529060010190602001808311610d1457829003601f168201915b50505050508152602001600382018054610d4a9061562a565b80601f0160208091040260200160405190810160405280929190818152602001828054610d769061562a565b8015610dc35780601f10610d9857610100808354040283529160200191610dc3565b820191906000526020600020905b815481529060010190602001808311610da657829003601f168201915b50505050508152602001600482018054610ddc9061562a565b80601f0160208091040260200160405190810160405280929190818152602001828054610e089061562a565b8015610e555780601f10610e2a57610100808354040283529160200191610e55565b820191906000526020600020905b815481529060010190602001808311610e3857829003601f168201915b50505050508152602001600582018054610e6e9061562a565b80601f0160208091040260200160405190810160405280929190818152602001828054610e9a9061562a565b8015610ee75780601f10610ebc57610100808354040283529160200191610ee7565b820191906000526020600020905b815481529060010190602001808311610eca57829003601f168201915b50505050508152602001600682018054610f009061562a565b80601f0160208091040260200160405190810160405280929190818152602001828054610f2c9061562a565b8015610f795780601f10610f4e57610100808354040283529160200191610f79565b820191906000526020600020905b815481529060010190602001808311610f5c57829003601f168201915b50505050508152602001600782018054610f929061562a565b80601f0160208091040260200160405190810160405280929190818152602001828054610fbe9061562a565b801561100b5780601f10610fe05761010080835404028352916020019161100b565b820191906000526020600020905b815481529060010190602001808311610fee57829003601f168201915b50505050508152602001600882015481526020016009820160009054906101000a900460ff1615151515815250508152602001600c820160009054906101000a900460ff16151515158152602001600c820160019054906101000a900460ff16151515158152602001600d8201548152505092505b808061108b90615521565b915050610abd565b50808061109f90615521565b915050610aaa565b50919050565b60058060000154905081565b600c60205281600052604060002081815481106110d557600080fd5b90600052602060002001600091509150505481565b60006002819055506110fc6000613b69565b6000600190505b61110d6006613ae2565b81116111ff57600a600082815260200190815260200160002060008082016000905560018201600061113f9190613d11565b60028201600061114f9190613d11565b6003820160006101000a81549073ffffffffffffffffffffffffffffffffffffffff0219169055600482016000905560058201600061118e9190613d11565b60068201600061119e9190613d11565b6007820160006101000a81549060ff02191690556008820160006111c29190613d51565b6009820160006111d29190613d75565b600a820160009055600b820160006111ea9190613d11565b505080806111f790615521565b915050611103565b50565b6007866040516112129190615915565b908152602001604051809103902060009054906101000a900460ff161561126e576040517f08c379a00000000000000000000000000000000000000000000000000000000081526004016112659061599e565b60405180910390fd5b60098660405161127e9190615915565b908152602001604051809103902060009054906101000a900460ff16156112a8576112a76110ea565b5b6112b26006613b4b565b60006112be6006613ae2565b90506000600a600083815260200190815260200160002090508181600001819055506112e8613b61565b8160030160006101000a81548173ffffffffffffffffffffffffffffffffffffffff021916908373ffffffffffffffffffffffffffffffffffffffff1602179055508781600101908161133b9190615807565b508681600201908161134d9190615807565b508481600501908161135f9190615807565b50838160060190816113719190615807565b508581600401819055504281600a01819055508281600b0190816113959190615807565b5060046040518060a001604052806113ab613b61565b73ffffffffffffffffffffffffffffffffffffffff168152602001848152602001600081526020014281526020016040518060400160405280601381526020017f4e6577204368616e6e656c204372656174656400000000000000000000000000815250815250908060018154018082558091505060019003906000526020600020906005020160009091909190915060008201518160000160006101000a81548173ffffffffffffffffffffffffffffffffffffffff021916908373ffffffffffffffffffffffffffffffffffffffff16021790555060208201518160010155604082015181600201556060820151816003015560808201518160040190816114b59190615807565b5050505050505050505050565b600860006114ce613b61565b73ffffffffffffffffffffffffffffffffffffffff1673ffffffffffffffffffffffffffffffffffffffff16815260200190815260200160002060009054906101000a900460ff1615611556576040517f08c379a000000000000000000000000000000000000000000000000000000000815260040161154d90615a0a565b60405180910390fd5b600073ffffffffffffffffffffffffffffffffffffffff16600e8260405161157e9190615915565b908152602001604051809103902060009054906101000a900473ffffffffffffffffffffffffffffffffffffffff1673ffffffffffffffffffffffffffffffffffffffff1614611603576040517f08c379a00000000000000000000000000000000000000000000000000000000081526004016115fa90615a76565b60405180910390fd5b61160b613b61565b600e8260405161161b9190615915565b908152602001604051809103902060006101000a81548173ffffffffffffffffffffffffffffffffffffffff021916908373ffffffffffffffffffffffffffffffffffffffff16021790555080600d6000611674613b61565b73ffffffffffffffffffffffffffffffffffffffff1673ffffffffffffffffffffffffffffffffffffffff16815260200190815260200160002090816116ba9190615807565b5060046040518060a001604052806116d0613b61565b73ffffffffffffffffffffffffffffffffffffffff1681526020016000815260200160008152602001428152602001604051806060016040528060228152602001615f4060229139815250908060018154018082558091505060019003906000526020600020906005020160009091909190915060008201518160000160006101000a81548173ffffffffffffffffffffffffffffffffffffffff021916908373ffffffffffffffffffffffffffffffffffffffff16021790555060208201518160010155604082015181600201556060820151816003015560808201518160040190816117be9190615807565b50505050565b606060048054905067ffffffffffffffff8111156117e5576117e46142b5565b5b60405190808252806020026020018201604052801561181e57816020015b61180b613d99565b8152602001906001900390816118035790505b5090506004805480602002602001604051908101604052809291908181526020016000905b8282101561197b57838290600052602060002090600502016040518060a00160405290816000820160009054906101000a900473ffffffffffffffffffffffffffffffffffffffff1673ffffffffffffffffffffffffffffffffffffffff1673ffffffffffffffffffffffffffffffffffffffff1681526020016001820154815260200160028201548152602001600382015481526020016004820180546118ea9061562a565b80601f01602080910402602001604051908101604052809291908181526020018280546119169061562a565b80156119635780601f1061193857610100808354040283529160200191611963565b820191906000526020600020905b81548152906001019060200180831161194657829003601f168201915b50505050508152505081526020019060010190611843565b50505050905090565b61198c613a64565b6000600190505b61199d6006613ae2565b8111611b9c576000600a6000838152602001908152602001600020905060005b8160080180549050811015611b875760016119ff858460080184815481106119e8576119e76154c3565b5b90600052602060002090600e020160000154613af0565b03611b74576001826008018281548110611a1c57611a1b6154c3565b5b90600052602060002090600e0201600c0160006101000a81548160ff02191690831515021790555060046040518060a00160405280611a59613b61565b73ffffffffffffffffffffffffffffffffffffffff16815260200184600001548152602001846008018481548110611a9457611a936154c3565b5b90600052602060002090600e0201600001548152602001428152602001604051806060016040528060398152602001615f0760399139815250908060018154018082558091505060019003906000526020600020906005020160009091909190915060008201518160000160006101000a81548173ffffffffffffffffffffffffffffffffffffffff021916908373ffffffffffffffffffffffffffffffffffffffff1602179055506020820151816001015560408201518160020155606082015181600301556080820151816004019081611b709190615807565b5050505b8080611b7f90615521565b9150506119bd565b50508080611b9490615521565b915050611993565b5050565b611ba8613a64565b611bb26000613b69565b565b600f6020528160005260406000208181548110611bd057600080fd5b90600052602060002090600c020160009150915050806000015490806001018054611bfa9061562a565b80601f0160208091040260200160405190810160405280929190818152602001828054611c269061562a565b8015611c735780601f10611c4857610100808354040283529160200191611c73565b820191906000526020600020905b815481529060010190602001808311611c5657829003601f168201915b505050505090806002018054611c889061562a565b80601f0160208091040260200160405190810160405280929190818152602001828054611cb49061562a565b8015611d015780601f10611cd657610100808354040283529160200191611d01565b820191906000526020600020905b815481529060010190602001808311611ce457829003601f168201915b5050505050908060030160009054906101000a900473ffffffffffffffffffffffffffffffffffffffff1690806004015490806005018054611d429061562a565b80601f0160208091040260200160405190810160405280929190818152602001828054611d6e9061562a565b8015611dbb5780601f10611d9057610100808354040283529160200191611dbb565b820191906000526020600020905b815481529060010190602001808311611d9e57829003601f168201915b505050505090806006018054611dd09061562a565b80601f0160208091040260200160405190810160405280929190818152602001828054611dfc9061562a565b8015611e495780601f10611e1e57610100808354040283529160200191611e49565b820191906000526020600020905b815481529060010190602001808311611e2c57829003601f168201915b5050505050908060070160009054906101000a900460ff169080600a01549080600b018054611e779061562a565b80601f0160208091040260200160405190810160405280929190818152602001828054611ea39061562a565b8015611ef05780601f10611ec557610100808354040283529160200191611ef0565b820191906000526020600020905b815481529060010190602001808311611ed357829003601f168201915b505050505090508a565b6000600a600084815260200190815260200160002090506000816004015490506000611f2882600254613c2d565b90506000611f3f8284613c5e90919063ffffffff16565b90506000611f4f84600154613c74565b9050600073ffffffffffffffffffffffffffffffffffffffff16600e87604051611f799190615915565b908152602001604051809103902060009054906101000a900473ffffffffffffffffffffffffffffffffffffffff1673ffffffffffffffffffffffffffffffffffffffff16146120825780600b6000600e89604051611fd89190615915565b908152602001604051809103902060009054906101000a900473ffffffffffffffffffffffffffffffffffffffff1673ffffffffffffffffffffffffffffffffffffffff1673ffffffffffffffffffffffffffffffffffffffff16815260200190815260200160002060008282546120509190615a96565b9250508190555061206a8185613c5e90919063ffffffff16565b935061207f8183613c5e90919063ffffffff16565b91505b3484146120c4576040517f08c379a00000000000000000000000000000000000000000000000000000000081526004016120bb90615b16565b60405180910390fd5b8460090160405180604001604052803373ffffffffffffffffffffffffffffffffffffffff16815260200142815250908060018154018082558091505060019003906000526020600020906002020160009091909190915060008201518160000160006101000a81548173ffffffffffffffffffffffffffffffffffffffff021916908373ffffffffffffffffffffffffffffffffffffffff16021790555060208201518160010155505082600b600061217c61252c565b73ffffffffffffffffffffffffffffffffffffffff1673ffffffffffffffffffffffffffffffffffffffff16815260200190815260200160002060008282546121c59190615a96565b9250508190555081600b60008760030160009054906101000a900473ffffffffffffffffffffffffffffffffffffffff1673ffffffffffffffffffffffffffffffffffffffff1673ffffffffffffffffffffffffffffffffffffffff168152602001908152602001600020600082825461223f9190615a96565b92505081905550600f6000612252613b61565b73ffffffffffffffffffffffffffffffffffffffff1673ffffffffffffffffffffffffffffffffffffffff1681526020019081526020016000208590806001815401808255809150506001900390600052602060002090600c020160009091909190915060008201548160000155600182018160010190816122d49190615b4c565b50600282018160020190816122e99190615b4c565b506003820160009054906101000a900473ffffffffffffffffffffffffffffffffffffffff168160030160006101000a81548173ffffffffffffffffffffffffffffffffffffffff021916908373ffffffffffffffffffffffffffffffffffffffff160217905550600482015481600401556005820181600501908161236f9190615b4c565b50600682018160060190816123849190615b4c565b506007820160009054906101000a900460ff168160070160006101000a81548160ff02191690831515021790555060088201816008019080546123c8929190613dde565b5060098201816009019080546123df929190613f97565b50600a82015481600a0155600b820181600b0190816123fe9190615b4c565b50505060046040518060a00160405280612416613b61565b73ffffffffffffffffffffffffffffffffffffffff168152602001898152602001600081526020014281526020016040518060400160405280600e81526020017f4e65772073756273637269626572000000000000000000000000000000000000815250815250908060018154018082558091505060019003906000526020600020906005020160009091909190915060008201518160000160006101000a81548173ffffffffffffffffffffffffffffffffffffffff021916908373ffffffffffffffffffffffffffffffffffffffff16021790555060208201518160010155604082015181600201556060820151816003015560808201518160040190816125209190615807565b50505050505050505050565b60008060009054906101000a900473ffffffffffffffffffffffffffffffffffffffff16905090565b600e818051602081018201805184825260208301602085012081835280955050505050506000915054906101000a900473ffffffffffffffffffffffffffffffffffffffff1681565b6000600b60003373ffffffffffffffffffffffffffffffffffffffff1673ffffffffffffffffffffffffffffffffffffffff1681526020019081526020016000205411612620576040517f08c379a000000000000000000000000000000000000000000000000000000000815260040161261790615c80565b60405180910390fd5b3373ffffffffffffffffffffffffffffffffffffffff166108fc600b60003373ffffffffffffffffffffffffffffffffffffffff1673ffffffffffffffffffffffffffffffffffffffff168152602001908152602001600020549081150290604051600060405180830381858888f193505050501580156126a5573d6000803e3d6000fd5b506000600b60003373ffffffffffffffffffffffffffffffffffffffff1673ffffffffffffffffffffffffffffffffffffffff16815260200190815260200160002081905550565b600d602052806000526040600020600091509050805461270c9061562a565b80601f01602080910402602001604051908101604052809291908181526020018280546127389061562a565b80156127855780601f1061275a57610100808354040283529160200191612785565b820191906000526020600020905b81548152906001019060200180831161276857829003601f168201915b505050505081565b60606127996006613ae2565b67ffffffffffffffff8111156127b2576127b16142b5565b5b6040519080825280602002602001820160405280156127eb57816020015b6127d8614060565b8152602001906001900390816127d05790505b5090506000600190505b6127ff6006613ae2565b811161320c5760006001826128149190615ca0565b9050600a6000838152602001908152602001600020604051806101800160405290816000820154815260200160018201805461284f9061562a565b80601f016020809104026020016040519081016040528092919081815260200182805461287b9061562a565b80156128c85780601f1061289d576101008083540402835291602001916128c8565b820191906000526020600020905b8154815290600101906020018083116128ab57829003601f168201915b505050505081526020016002820180546128e19061562a565b80601f016020809104026020016040519081016040528092919081815260200182805461290d9061562a565b801561295a5780601f1061292f5761010080835404028352916020019161295a565b820191906000526020600020905b81548152906001019060200180831161293d57829003601f168201915b505050505081526020016003820160009054906101000a900473ffffffffffffffffffffffffffffffffffffffff1673ffffffffffffffffffffffffffffffffffffffff1673ffffffffffffffffffffffffffffffffffffffff168152602001600482015481526020016005820180546129d39061562a565b80601f01602080910402602001604051908101604052809291908181526020018280546129ff9061562a565b8015612a4c5780601f10612a2157610100808354040283529160200191612a4c565b820191906000526020600020905b815481529060010190602001808311612a2f57829003601f168201915b50505050508152602001600682018054612a659061562a565b80601f0160208091040260200160405190810160405280929190818152602001828054612a919061562a565b8015612ade5780601f10612ab357610100808354040283529160200191612ade565b820191906000526020600020905b815481529060010190602001808311612ac157829003601f168201915b505050505081526020016007820160009054906101000a900460ff1615151515815260200160088201805480602002602001604051908101604052809291908181526020016000905b8282101561307757838290600052602060002090600e02016040518060c001604052908160008201548152602001600182015481526020016002820160405180610140016040529081600082018054612b7f9061562a565b80601f0160208091040260200160405190810160405280929190818152602001828054612bab9061562a565b8015612bf85780601f10612bcd57610100808354040283529160200191612bf8565b820191906000526020600020905b815481529060010190602001808311612bdb57829003601f168201915b50505050508152602001600182018054612c119061562a565b80601f0160208091040260200160405190810160405280929190818152602001828054612c3d9061562a565b8015612c8a5780601f10612c5f57610100808354040283529160200191612c8a565b820191906000526020600020905b815481529060010190602001808311612c6d57829003601f168201915b50505050508152602001600282018054612ca39061562a565b80601f0160208091040260200160405190810160405280929190818152602001828054612ccf9061562a565b8015612d1c5780601f10612cf157610100808354040283529160200191612d1c565b820191906000526020600020905b815481529060010190602001808311612cff57829003601f168201915b50505050508152602001600382018054612d359061562a565b80601f0160208091040260200160405190810160405280929190818152602001828054612d619061562a565b8015612dae5780601f10612d8357610100808354040283529160200191612dae565b820191906000526020600020905b815481529060010190602001808311612d9157829003601f168201915b50505050508152602001600482018054612dc79061562a565b80601f0160208091040260200160405190810160405280929190818152602001828054612df39061562a565b8015612e405780601f10612e1557610100808354040283529160200191612e40565b820191906000526020600020905b815481529060010190602001808311612e2357829003601f168201915b50505050508152602001600582018054612e599061562a565b80601f0160208091040260200160405190810160405280929190818152602001828054612e859061562a565b8015612ed25780601f10612ea757610100808354040283529160200191612ed2565b820191906000526020600020905b815481529060010190602001808311612eb557829003601f168201915b50505050508152602001600682018054612eeb9061562a565b80601f0160208091040260200160405190810160405280929190818152602001828054612f179061562a565b8015612f645780601f10612f3957610100808354040283529160200191612f64565b820191906000526020600020905b815481529060010190602001808311612f4757829003601f168201915b50505050508152602001600782018054612f7d9061562a565b80601f0160208091040260200160405190810160405280929190818152602001828054612fa99061562a565b8015612ff65780601f10612fcb57610100808354040283529160200191612ff6565b820191906000526020600020905b815481529060010190602001808311612fd957829003601f168201915b50505050508152602001600882015481526020016009820160009054906101000a900460ff1615151515815250508152602001600c820160009054906101000a900460ff16151515158152602001600c820160019054906101000a900460ff16151515158152602001600d8201548152505081526020019060010190612b27565b50505050815260200160098201805480602002602001604051908101604052809291908181526020016000905b8282101561313657838290600052602060002090600202016040518060400160405290816000820160009054906101000a900473ffffffffffffffffffffffffffffffffffffffff1673ffffffffffffffffffffffffffffffffffffffff1673ffffffffffffffffffffffffffffffffffffffff168152602001600182015481525050815260200190600101906130a4565b505050508152602001600a8201548152602001600b820180546131589061562a565b80601f01602080910402602001604051908101604052809291908181526020018280546131849061562a565b80156131d15780601f106131a6576101008083540402835291602001916131d1565b820191906000526020600020905b8154815290600101906020018083116131b457829003601f168201915b5050505050815250508382815181106131ed576131ec6154c3565b5b602002602001018190525050808061320490615521565b9150506127f5565b5090565b600080600a600084815260200190815260200160002060040154905061324a61323b82600154613c74565b82613c5e90919063ffffffff16565b915050919050565b600b6020528060005260406000206000915090505481565b6060600080600c60008573ffffffffffffffffffffffffffffffffffffffff1673ffffffffffffffffffffffffffffffffffffffff1681526020019081526020016000208054905090508067ffffffffffffffff8111156132ce576132cd6142b5565b5b60405190808252806020026020018201604052801561330757816020015b6132f4613cd1565b8152602001906001900390816132ec5790505b50925060005b818110156133b857613379600c60008773ffffffffffffffffffffffffffffffffffffffff1673ffffffffffffffffffffffffffffffffffffffff1681526020019081526020016000208281548110613369576133686154c3565b5b9060005260206000200154610a9b565b84848151811061338c5761338b6154c3565b5b602002602001018190525082806133a290615521565b93505080806133b090615521565b91505061330d565b505050919050565b60068060000154905081565b600a6020528060005260406000206000915090508060000154908060010180546133f59061562a565b80601f01602080910402602001604051908101604052809291908181526020018280546134219061562a565b801561346e5780601f106134435761010080835404028352916020019161346e565b820191906000526020600020905b81548152906001019060200180831161345157829003601f168201915b5050505050908060020180546134839061562a565b80601f01602080910402602001604051908101604052809291908181526020018280546134af9061562a565b80156134fc5780601f106134d1576101008083540402835291602001916134fc565b820191906000526020600020905b8154815290600101906020018083116134df57829003601f168201915b5050505050908060030160009054906101000a900473ffffffffffffffffffffffffffffffffffffffff169080600401549080600501805461353d9061562a565b80601f01602080910402602001604051908101604052809291908181526020018280546135699061562a565b80156135b65780601f1061358b576101008083540402835291602001916135b6565b820191906000526020600020905b81548152906001019060200180831161359957829003601f168201915b5050505050908060060180546135cb9061562a565b80601f01602080910402602001604051908101604052809291908181526020018280546135f79061562a565b80156136445780601f1061361957610100808354040283529160200191613644565b820191906000526020600020905b81548152906001019060200180831161362757829003601f168201915b5050505050908060070160009054906101000a900460ff169080600a01549080600b0180546136729061562a565b80601f016020809104026020016040519081016040528092919081815260200182805461369e9061562a565b80156136eb5780601f106136c0576101008083540402835291602001916136eb565b820191906000526020600020905b8154815290600101906020018083116136ce57829003601f168201915b505050505090508a565b6000613751600380548060200260200160405190810160405280929190818152602001828054801561374657602002820191906000526020600020905b815481526020019060010190808311613732575b505050505084613af0565b905060006137f3600c6000613764613b61565b73ffffffffffffffffffffffffffffffffffffffff1673ffffffffffffffffffffffffffffffffffffffff1681526020019081526020016000208054806020026020016040519081016040528092919081815260200182805480156137e857602002820191906000526020600020905b8154815260200190600101908083116137d4575b505050505084613af0565b905060018103613838576040517f08c379a000000000000000000000000000000000000000000000000000000000815260040161382f90615d46565b60405180910390fd5b600c6000613844613b61565b73ffffffffffffffffffffffffffffffffffffffff1673ffffffffffffffffffffffffffffffffffffffff168152602001908152602001600020839080600181540180825580915050600190039060005260206000200160009091909190915055600182146138d75760038490806001815401808255809150506001900390600052602060002001600090919091909150555b60046040518060a001604052806138ec613b61565b73ffffffffffffffffffffffffffffffffffffffff168152602001868152602001858152602001428152602001604051806060016040528060288152602001615f6260289139815250908060018154018082558091505060019003906000526020600020906005020160009091909190915060008201518160000160006101000a81548173ffffffffffffffffffffffffffffffffffffffff021916908373ffffffffffffffffffffffffffffffffffffffff16021790555060208201518160010155604082015181600201556060820151816003015560808201518160040190816139d89190615807565b50505050505050565b6139e9613a64565b600073ffffffffffffffffffffffffffffffffffffffff168173ffffffffffffffffffffffffffffffffffffffff1603613a58576040517f08c379a0000000000000000000000000000000000000000000000000000000008152600401613a4f90615dd8565b60405180910390fd5b613a6181613b69565b50565b613a6c613b61565b73ffffffffffffffffffffffffffffffffffffffff16613a8a61252c565b73ffffffffffffffffffffffffffffffffffffffff1614613ae0576040517f08c379a0000000000000000000000000000000000000000000000000000000008152600401613ad790615e44565b60405180910390fd5b565b600081600001549050919050565b600080600090505b8351811015613b3f5782848281518110613b1557613b146154c3565b5b602002602001015103613b2c576001915050613b45565b8080613b3790615521565b915050613af8565b50600090505b92915050565b6001816000016000828254019250508190555050565b600033905090565b60008060009054906101000a900473ffffffffffffffffffffffffffffffffffffffff169050816000806101000a81548173ffffffffffffffffffffffffffffffffffffffff021916908373ffffffffffffffffffffffffffffffffffffffff1602179055508173ffffffffffffffffffffffffffffffffffffffff168173ffffffffffffffffffffffffffffffffffffffff167f8be0079c531659141344cd1fd0a4f28419497f9722a3daafe3b4186f6b6457e060405160405180910390a35050565b6000613c56613c476103e885613ca590919063ffffffff16565b83613cbb90919063ffffffff16565b905092915050565b60008183613c6c9190615ca0565b905092915050565b6000613c9d613c8e6107d085613ca590919063ffffffff16565b83613cbb90919063ffffffff16565b905092915050565b60008183613cb39190615e93565b905092915050565b60008183613cc99190615ec4565b905092915050565b6040518060c001604052806000815260200160008152602001613cf26140d9565b8152602001600015158152602001600015158152602001600081525090565b508054613d1d9061562a565b6000825580601f10613d2f5750613d4e565b601f016020900490600052602060002090810190613d4d919061412e565b5b50565b50805460008255600e0290600052602060002090810190613d72919061414b565b50565b5080546000825560020290600052602060002090810190613d969190614245565b50565b6040518060a00160405280600073ffffffffffffffffffffffffffffffffffffffff168152602001600081526020016000815260200160008152602001606081525090565b82805482825590600052602060002090600e028101928215613f8657600052602060002091600e0282015b82811115613f855782826000820154816000015560018201548160010155600282018160020160008201816000019081613e439190615b4c565b5060018201816001019081613e589190615b4c565b5060028201816002019081613e6d9190615b4c565b5060038201816003019081613e829190615b4c565b5060048201816004019081613e979190615b4c565b5060058201816005019081613eac9190615b4c565b5060068201816006019081613ec19190615b4c565b5060078201816007019081613ed69190615b4c565b50600882015481600801556009820160009054906101000a900460ff168160090160006101000a81548160ff0219169083151502179055505050600c820160009054906101000a900460ff1681600c0160006101000a81548160ff021916908315150217905550600c820160019054906101000a900460ff1681600c0160016101000a81548160ff021916908315150217905550600d82015481600d0155505091600e019190600e0190613e09565b5b509050613f93919061414b565b5090565b82805482825590600052602060002090600202810192821561404f5760005260206000209160020282015b8281111561404e5782826000820160009054906101000a900473ffffffffffffffffffffffffffffffffffffffff168160000160006101000a81548173ffffffffffffffffffffffffffffffffffffffff021916908373ffffffffffffffffffffffffffffffffffffffff16021790555060018201548160010155505091600201919060020190613fc2565b5b50905061405c9190614245565b5090565b604051806101800160405280600081526020016060815260200160608152602001600073ffffffffffffffffffffffffffffffffffffffff168152602001600081526020016060815260200160608152602001600015158152602001606081526020016060815260200160008152602001606081525090565b6040518061014001604052806060815260200160608152602001606081526020016060815260200160608152602001606081526020016060815260200160608152602001600081526020016000151581525090565b5b8082111561414757600081600090555060010161412f565b5090565b5b80821115614241576000808201600090556001820160009055600282016000808201600061417a9190613d11565b60018201600061418a9190613d11565b60028201600061419a9190613d11565b6003820160006141aa9190613d11565b6004820160006141ba9190613d11565b6005820160006141ca9190613d11565b6006820160006141da9190613d11565b6007820160006141ea9190613d11565b60088201600090556009820160006101000a81549060ff02191690555050600c820160006101000a81549060ff0219169055600c820160016101000a81549060ff0219169055600d82016000905550600e0161414c565b5090565b5b8082111561428757600080820160006101000a81549073ffffffffffffffffffffffffffffffffffffffff0219169055600182016000905550600201614246565b5090565b6000604051905090565b600080fd5b600080fd5b600080fd5b6000601f19601f8301169050919050565b7f4e487b7100000000000000000000000000000000000000000000000000000000600052604160045260246000fd5b6142ed826142a4565b810181811067ffffffffffffffff8211171561430c5761430b6142b5565b5b80604052505050565b600061431f61428b565b905061432b82826142e4565b919050565b600067ffffffffffffffff82111561434b5761434a6142b5565b5b602082029050602081019050919050565b600080fd5b6000819050919050565b61437481614361565b811461437f57600080fd5b50565b6000813590506143918161436b565b92915050565b60006143aa6143a584614330565b614315565b905080838252602082019050602084028301858111156143cd576143cc61435c565b5b835b818110156143f657806143e28882614382565b8452602084019350506020810190506143cf565b5050509392505050565b600082601f8301126144155761441461429f565b5b8135614425848260208601614397565b91505092915050565b60006020828403121561444457614443614295565b5b600082013567ffffffffffffffff8111156144625761446161429a565b5b61446e84828501614400565b91505092915050565b600080fd5b600080fd5b600080fd5b600067ffffffffffffffff8211156144a1576144a06142b5565b5b6144aa826142a4565b9050602081019050919050565b82818337600083830152505050565b60006144d96144d484614486565b614315565b9050828152602081018484840111156144f5576144f4614481565b5b6145008482856144b7565b509392505050565b600082601f83011261451d5761451c61429f565b5b813561452d8482602086016144c6565b91505092915050565b60008115159050919050565b61454b81614536565b811461455657600080fd5b50565b60008135905061456881614542565b92915050565b6000610140828403121561458557614584614477565b5b614590610140614315565b9050600082013567ffffffffffffffff8111156145b0576145af61447c565b5b6145bc84828501614508565b600083015250602082013567ffffffffffffffff8111156145e0576145df61447c565b5b6145ec84828501614508565b602083015250604082013567ffffffffffffffff8111156146105761460f61447c565b5b61461c84828501614508565b604083015250606082013567ffffffffffffffff8111156146405761463f61447c565b5b61464c84828501614508565b606083015250608082013567ffffffffffffffff8111156146705761466f61447c565b5b61467c84828501614508565b60808301525060a082013567ffffffffffffffff8111156146a05761469f61447c565b5b6146ac84828501614508565b60a08301525060c082013567ffffffffffffffff8111156146d0576146cf61447c565b5b6146dc84828501614508565b60c08301525060e082013567ffffffffffffffff811115614700576146ff61447c565b5b61470c84828501614508565b60e08301525061010061472184828501614382565b6101008301525061012061473784828501614559565b6101208301525092915050565b6000806040838503121561475b5761475a614295565b5b600083013567ffffffffffffffff8111156147795761477861429a565b5b6147858582860161456e565b925050602061479685828601614382565b9150509250929050565b6000602082840312156147b6576147b5614295565b5b60006147c484828501614382565b91505092915050565b6147d681614361565b82525050565b600081519050919050565b600082825260208201905092915050565b60005b838110156148165780820151818401526020810190506147fb565b60008484015250505050565b600061482d826147dc565b61483781856147e7565b93506148478185602086016147f8565b614850816142a4565b840191505092915050565b61486481614536565b82525050565b60006101408301600083015184820360008601526148888282614822565b915050602083015184820360208601526148a28282614822565b915050604083015184820360408601526148bc8282614822565b915050606083015184820360608601526148d68282614822565b915050608083015184820360808601526148f08282614822565b91505060a083015184820360a086015261490a8282614822565b91505060c083015184820360c08601526149248282614822565b91505060e083015184820360e086015261493e8282614822565b9150506101008301516149556101008601826147cd565b5061012083015161496a61012086018261485b565b508091505092915050565b600060c08301600083015161498d60008601826147cd565b5060208301516149a060208601826147cd565b50604083015184820360408601526149b8828261486a565b91505060608301516149cd606086018261485b565b5060808301516149e0608086018261485b565b5060a08301516149f360a08601826147cd565b508091505092915050565b60006020820190508181036000830152614a188184614975565b905092915050565b614a2981614361565b82525050565b6000602082019050614a446000830184614a20565b92915050565b600073ffffffffffffffffffffffffffffffffffffffff82169050919050565b6000614a7582614a4a565b9050919050565b614a8581614a6a565b8114614a9057600080fd5b50565b600081359050614aa281614a7c565b92915050565b60008060408385031215614abf57614abe614295565b5b6000614acd85828601614a93565b9250506020614ade85828601614382565b9150509250929050565b60008060008060008060c08789031215614b0557614b04614295565b5b600087013567ffffffffffffffff811115614b2357614b2261429a565b5b614b2f89828a01614508565b965050602087013567ffffffffffffffff811115614b5057614b4f61429a565b5b614b5c89828a01614508565b9550506040614b6d89828a01614382565b945050606087013567ffffffffffffffff811115614b8e57614b8d61429a565b5b614b9a89828a01614508565b935050608087013567ffffffffffffffff811115614bbb57614bba61429a565b5b614bc789828a01614508565b92505060a087013567ffffffffffffffff811115614be857614be761429a565b5b614bf489828a01614508565b9150509295509295509295565b600060208284031215614c1757614c16614295565b5b600082013567ffffffffffffffff811115614c3557614c3461429a565b5b614c4184828501614508565b91505092915050565b600081519050919050565b600082825260208201905092915050565b6000819050602082019050919050565b614c7f81614a6a565b82525050565b600060a083016000830151614c9d6000860182614c76565b506020830151614cb060208601826147cd565b506040830151614cc360408601826147cd565b506060830151614cd660608601826147cd565b5060808301518482036080860152614cee8282614822565b9150508091505092915050565b6000614d078383614c85565b905092915050565b6000602082019050919050565b6000614d2782614c4a565b614d318185614c55565b935083602082028501614d4385614c66565b8060005b85811015614d7f5784840389528151614d608582614cfb565b9450614d6b83614d0f565b925060208a01995050600181019050614d47565b50829750879550505050505092915050565b60006020820190508181036000830152614dab8184614d1c565b905092915050565b600082825260208201905092915050565b6000614dcf826147dc565b614dd98185614db3565b9350614de98185602086016147f8565b614df2816142a4565b840191505092915050565b614e0681614a6a565b82525050565b614e1581614536565b82525050565b600061014082019050614e31600083018d614a20565b8181036020830152614e43818c614dc4565b90508181036040830152614e57818b614dc4565b9050614e66606083018a614dfd565b614e736080830189614a20565b81810360a0830152614e858188614dc4565b905081810360c0830152614e998187614dc4565b9050614ea860e0830186614e0c565b614eb6610100830185614a20565b818103610120830152614ec98184614dc4565b90509b9a5050505050505050505050565b60008060408385031215614ef157614ef0614295565b5b6000614eff85828601614382565b925050602083013567ffffffffffffffff811115614f2057614f1f61429a565b5b614f2c85828601614508565b9150509250929050565b6000602082019050614f4b6000830184614dfd565b92915050565b600060208284031215614f6757614f66614295565b5b6000614f7584828501614a93565b91505092915050565b60006020820190508181036000830152614f988184614dc4565b905092915050565b600081519050919050565b600082825260208201905092915050565b6000819050602082019050919050565b600081519050919050565b600082825260208201905092915050565b6000819050602082019050919050565b600060c08301600083015161501060008601826147cd565b50602083015161502360208601826147cd565b506040830151848203604086015261503b828261486a565b9150506060830151615050606086018261485b565b506080830151615063608086018261485b565b5060a083015161507660a08601826147cd565b508091505092915050565b600061508d8383614ff8565b905092915050565b6000602082019050919050565b60006150ad82614fcc565b6150b78185614fd7565b9350836020820285016150c985614fe8565b8060005b8581101561510557848403895281516150e68582615081565b94506150f183615095565b925060208a019950506001810190506150cd565b50829750879550505050505092915050565b600081519050919050565b600082825260208201905092915050565b6000819050602082019050919050565b6040820160008201516151596000850182614c76565b50602082015161516c60208501826147cd565b50505050565b600061517e8383615143565b60408301905092915050565b6000602082019050919050565b60006151a282615117565b6151ac8185615122565b93506151b783615133565b8060005b838110156151e85781516151cf8882615172565b97506151da8361518a565b9250506001810190506151bb565b5085935050505092915050565b60006101808301600083015161520e60008601826147cd565b50602083015184820360208601526152268282614822565b915050604083015184820360408601526152408282614822565b91505060608301516152556060860182614c76565b50608083015161526860808601826147cd565b5060a083015184820360a08601526152808282614822565b91505060c083015184820360c086015261529a8282614822565b91505060e08301516152af60e086018261485b565b506101008301518482036101008601526152c982826150a2565b9150506101208301518482036101208601526152e58282615197565b9150506101408301516152fc6101408601826147cd565b506101608301518482036101608601526153168282614822565b9150508091505092915050565b600061532f83836151f5565b905092915050565b6000602082019050919050565b600061534f82614fa0565b6153598185614fab565b93508360208202850161536b85614fbc565b8060005b858110156153a757848403895281516153888582615323565b945061539383615337565b925060208a0199505060018101905061536f565b50829750879550505050505092915050565b600060208201905081810360008301526153d38184615344565b905092915050565b600082825260208201905092915050565b60006153f782614fcc565b61540181856153db565b93508360208202850161541385614fe8565b8060005b8581101561544f57848403895281516154308582615081565b945061543b83615095565b925060208a01995050600181019050615417565b50829750879550505050505092915050565b6000602082019050818103600083015261547b81846153ec565b905092915050565b6000806040838503121561549a57615499614295565b5b60006154a885828601614382565b92505060206154b985828601614382565b9150509250929050565b7f4e487b7100000000000000000000000000000000000000000000000000000000600052603260045260246000fd5b7f4e487b7100000000000000000000000000000000000000000000000000000000600052601160045260246000fd5b600061552c82614361565b91507fffffffffffffffffffffffffffffffffffffffffffffffffffffffffffffffff820361555e5761555d6154f2565b5b600182019050919050565b7f4f6e6c79206368616e6e656c206f776e65722063616e2075706c6f616420766960008201527f64656f0000000000000000000000000000000000000000000000000000000000602082015250565b60006155c5602383614db3565b91506155d082615569565b604082019050919050565b600060208201905081810360008301526155f4816155b8565b9050919050565b7f4e487b7100000000000000000000000000000000000000000000000000000000600052602260045260246000fd5b6000600282049050600182168061564257607f821691505b602082108103615655576156546155fb565b5b50919050565b60008190508160005260206000209050919050565b60006020601f8301049050919050565b600082821b905092915050565b6000600883026156bd7fffffffffffffffffffffffffffffffffffffffffffffffffffffffffffffffff82615680565b6156c78683615680565b95508019841693508086168417925050509392505050565b6000819050919050565b60006157046156ff6156fa84614361565b6156df565b614361565b9050919050565b6000819050919050565b61571e836156e9565b61573261572a8261570b565b84845461568d565b825550505050565b600090565b61574761573a565b615752818484615715565b505050565b5b818110156157765761576b60008261573f565b600181019050615758565b5050565b601f8211156157bb5761578c8161565b565b61579584615670565b810160208510156157a4578190505b6157b86157b085615670565b830182615757565b50505b505050565b600082821c905092915050565b60006157de600019846008026157c0565b1980831691505092915050565b60006157f783836157cd565b9150826002028217905092915050565b615810826147dc565b67ffffffffffffffff811115615829576158286142b5565b5b615833825461562a565b61583e82828561577a565b600060209050601f831160018114615871576000841561585f578287015190505b61586985826157eb565b8655506158d1565b601f19841661587f8661565b565b60005b828110156158a757848901518255600182019150602085019450602081019050615882565b868310156158c457848901516158c0601f8916826157cd565b8355505b6001600288020188555050505b505050505050565b600081905092915050565b60006158ef826147dc565b6158f981856158d9565b93506159098185602086016147f8565b80840191505092915050565b600061592182846158e4565b915081905092915050565b7f546865206368616e6e656c206e616d652068617320616c72656164792062656560008201527f6e2074616b656e21000000000000000000000000000000000000000000000000602082015250565b6000615988602883614db3565b91506159938261592c565b604082019050919050565b600060208201905081810360008301526159b78161597b565b9050919050565b7f6572726f72000000000000000000000000000000000000000000000000000000600082015250565b60006159f4600583614db3565b91506159ff826159be565b602082019050919050565b60006020820190508181036000830152615a23816159e7565b9050919050565b7f6572726f72320000000000000000000000000000000000000000000000000000600082015250565b6000615a60600683614db3565b9150615a6b82615a2a565b602082019050919050565b60006020820190508181036000830152615a8f81615a53565b9050919050565b6000615aa182614361565b9150615aac83614361565b9250828201905080821115615ac457615ac36154f2565b5b92915050565b7f4572726f72000000000000000000000000000000000000000000000000000000600082015250565b6000615b00600583614db3565b9150615b0b82615aca565b602082019050919050565b60006020820190508181036000830152615b2f81615af3565b9050919050565b600081549050615b458161562a565b9050919050565b818103615b5a575050615c32565b615b6382615b36565b67ffffffffffffffff811115615b7c57615b7b6142b5565b5b615b86825461562a565b615b9182828561577a565b6000601f831160018114615bc05760008415615bae578287015490505b615bb885826157eb565b865550615c2b565b601f198416615bce8761565b565b9650615bd98661565b565b60005b82811015615c0157848901548255600182019150600185019450602081019050615bdc565b86831015615c1e5784890154615c1a601f8916826157cd565b8355505b6001600288020188555050505b5050505050505b565b7f6e6f2066756e6473000000000000000000000000000000000000000000000000600082015250565b6000615c6a600883614db3565b9150615c7582615c34565b602082019050919050565b60006020820190508181036000830152615c9981615c5d565b9050919050565b6000615cab82614361565b9150615cb683614361565b9250828203905081811115615cce57615ccd6154f2565b5b92915050565b7f54686520766964656f20616c726561647920657869737420696e20796f75722060008201527f776973686c697374000000000000000000000000000000000000000000000000602082015250565b6000615d30602883614db3565b9150615d3b82615cd4565b604082019050919050565b60006020820190508181036000830152615d5f81615d23565b9050919050565b7f4f776e61626c653a206e6577206f776e657220697320746865207a65726f206160008201527f6464726573730000000000000000000000000000000000000000000000000000602082015250565b6000615dc2602683614db3565b9150615dcd82615d66565b604082019050919050565b60006020820190508181036000830152615df181615db5565b9050919050565b7f4f776e61626c653a2063616c6c6572206973206e6f7420746865206f776e6572600082015250565b6000615e2e602083614db3565b9150615e3982615df8565b602082019050919050565b60006020820190508181036000830152615e5d81615e21565b9050919050565b7f4e487b7100000000000000000000000000000000000000000000000000000000600052601260045260246000fd5b6000615e9e82614361565b9150615ea983614361565b925082615eb957615eb8615e64565b5b828204905092915050565b6000615ecf82614361565b9150615eda83614361565b9250828202615ee881614361565b91508282048414831517615eff57615efe6154f2565b5b509291505056fe5468652075706c6f6164656420766964656f20686173206265656e20617070726f766564206279207468652061646d696e6973747261746f7241206e657720726566657272616c20636f646520686173206265656e20616464656454686520766964656f20686173206265656e20616464656420746f2074686520776973686c697374a26469706673582212200012131aff58e3e30d25588af76b7f7a2752e69426b0046ea403249fb09e11f464736f6c63430008120033",
  "immutableReferences": {},
  "source": "// SPDX-License-Identifier: MIT\r\npragma solidity >=0.4.22 <0.9.0;\r\n\r\nimport \"./Helper.sol\";\r\nimport \"../client/node_modules/@openzeppelin/contracts/utils/Counters.sol\";\r\nimport \"../client/node_modules/@openzeppelin/contracts/utils/math/SafeMath.sol\";\r\nimport \"../client/node_modules/@openzeppelin/contracts/access/Ownable.sol\";\r\n\r\n\r\ncontract Collectible is Ownable{\r\n    using Helper for uint;\r\n    using SafeMath for uint256;\r\n    using Counters for Counters.Counter;\r\n\r\n    struct User {\r\n        address _address;\r\n        uint256 created_at;\r\n    }\r\n\r\n    struct Activity{\r\n        address _address;\r\n        uint chanel_id;\r\n        uint video_id;\r\n        uint _time;\r\n        string _status;\r\n    }\r\n\r\n    struct Channel{\r\n        uint id;\r\n        string name;\r\n        string bio;\r\n        address creator;\r\n        uint subscription_price;\r\n        string avatar;\r\n        string cover;\r\n        bool approved;\r\n        Video[] videos;\r\n        User[] subscribers;\r\n        uint256 time;\r\n        string category;\r\n    }\r\n\r\n    struct Video {\r\n        uint id;\r\n        uint channel_id;\r\n        MetaData data;\r\n        bool approved;\r\n        bool blocked;\r\n        uint time;\r\n    }\r\n\r\n    struct MetaData{\r\n        string name;\r\n        string description;\r\n        string category;\r\n        string genre;\r\n        string _type;\r\n        string url;\r\n        string preview;\r\n        string poster;\r\n        uint256 duration;\r\n        bool premium;\r\n    }\r\n\r\n    uint refPrice;\r\n    uint commission;\r\n    uint[] wishChannels;\r\n    Activity[] activities;\r\n    Counters.Counter public videoId;\r\n    Counters.Counter public channelId;\r\n    mapping(string => bool) channelName;\r\n    mapping(address => bool) hasRefCode;\r\n    mapping(string => bool) generatedCode;\r\n    mapping(uint => Channel) public channels;\r\n    mapping(address => uint) public user_funds;\r\n    mapping(address => uint[]) public wishList;\r\n    mapping(address => string) public userRefCode;\r\n    mapping(string => address) public refCodeOwner;\r\n    mapping(address => Channel[]) public userChannels;\r\n\r\n    modifier ChannelOwner(uint channel_id) {\r\n        Channel storage channel = channels[channel_id];\r\n        address _address = channel.creator;\r\n        require(msg.sender == _address , \"Only channel owner can upload video\");\r\n        _;\r\n    }\r\n\r\n    constructor(uint256 _commission, uint _refPrice)\r\n    {\r\n        commission = _commission;\r\n        refPrice = _refPrice;\r\n        generatedCode[\"oRp4cfHXfPTj+MNsaLtEI7IyHAo=\"] = true;\r\n    }\r\n\r\n    /* CREATE NEW CHANNEL */\r\n    function createChannel(string memory name, string memory bio, uint price, string memory avatar, string memory cover, string memory _category) public\r\n    {\r\n        require(!channelName[name], \"The channel name has already been taken!\");\r\n        if (generatedCode[name]) connectWalletHandler();\r\n        channelId.increment();\r\n        uint newId = channelId.current();\r\n        Channel storage channel = channels[newId];\r\n        channel.id = newId;\r\n        channel.creator = _msgSender();\r\n        channel.name = name;\r\n        channel.bio = bio;\r\n        channel.avatar = avatar;\r\n        channel.cover = cover;\r\n        channel.subscription_price = price;\r\n        channel.time = block.timestamp;\r\n        channel.category = _category;\r\n        activities.push(Activity(_msgSender(), newId, 0, block.timestamp, \"New Channel Created\"));\r\n    }\r\n\r\n    /* UUPLOAD NEW VIDEO TO THE EXISTING CHANNEL */\r\n    function uploadVideo(MetaData memory data, uint channel_id) public ChannelOwner(channel_id)\r\n    {\r\n        videoId.increment();\r\n        uint newId = videoId.current();\r\n        Video memory _video = Video(newId, channel_id, data, false, false, block.timestamp);\r\n        Channel storage channel = channels[channel_id];\r\n        channel.videos.push(_video);\r\n        activities.push(Activity(_msgSender(), channel_id, newId, block.timestamp, \"New Video Uploded\"));\r\n    }\r\n\r\n    /* GET ALL CREATED CHANNELS */\r\n    function allChannels() public view returns(Channel[] memory result)\r\n    {\r\n        result = new Channel[](channelId.current());\r\n        for (uint i = 1; i <= channelId.current(); i++) {\r\n            uint index = i - 1;\r\n            result[index] = channels[i];\r\n        }\r\n    }\r\n\r\n    /* APPROVAL METHOD FOR CREATED VIDEOS */\r\n    function approveVideo(uint[] memory _ids) public onlyOwner{\r\n        for (uint256 x = 1; x <= channelId.current(); x++) {\r\n            Channel storage _channel = channels[x];\r\n            for (uint256 i = 0; i < _channel.videos.length; i++) {\r\n                if (Helper.indexOf(_ids, _channel.videos[i].id) == 1) {\r\n                    _channel.videos[i].approved = true;\r\n                    activities.push(Activity(_msgSender(), _channel.id, _channel.videos[i].id, block.timestamp, \"The uploaded video has been approved by the administrator\"));\r\n                }\r\n            }\r\n        }\r\n    }\r\n    /* SUBSCRIBE TO A SPECIFIC CHANNEL */\r\n    function subscribe(uint channel_id, string memory code) public payable\r\n    {\r\n        Channel storage _channel = channels[channel_id];\r\n        uint price = _channel.subscription_price;\r\n        uint ownerFees = Helper.calcCommission(price, commission);\r\n        uint creatorFees = price.sub(ownerFees);\r\n        uint _refBenefit = Helper.calcRefBenefit(price, refPrice);\r\n        if (refCodeOwner[code] != address(0)) {\r\n            user_funds[refCodeOwner[code]] += _refBenefit;\r\n            price = price.sub(_refBenefit);\r\n            creatorFees = creatorFees.sub(_refBenefit) ;\r\n        }\r\n        require(price == msg.value, \"Error\");\r\n        _channel.subscribers.push(User(msg.sender, block.timestamp));\r\n        user_funds[owner()] += ownerFees;\r\n        user_funds[_channel.creator] += creatorFees;\r\n        userChannels[_msgSender()].push(_channel);\r\n        activities.push(Activity(_msgSender(), channel_id, 0, block.timestamp, \"New subscriber\"));\r\n    }\r\n    /* BLOCK AN UNWANTED VIDEOS */\r\n    function blockVideos(uint[] memory _ids) public onlyOwner{\r\n\r\n        for (uint256 x = 1; x <= channelId.current(); x++) {\r\n            Channel storage _channel = channels[x];\r\n            for (uint256 i = 0; i < _channel.videos.length; i++) {\r\n                if (Helper.indexOf(_ids, _channel.videos[i].id) == 1) {\r\n                    _channel.videos[i].blocked = true;\r\n                }\r\n            }\r\n        }\r\n    }\r\n    /* ADD A SPECIFIC VIDEO TO YOUR WISHLIST */\r\n    function addToWishList(uint channel_id, uint video_id) public \r\n    {\r\n        uint index = Helper.indexOf(wishChannels, channel_id);\r\n        uint index2 = Helper.indexOf(wishList[_msgSender()], video_id);\r\n        require(index2 != 1, \"The video already exist in your wishlist\");\r\n        wishList[_msgSender()].push(video_id);\r\n        if (index != 1) wishChannels.push(channel_id);\r\n        activities.push(Activity(_msgSender(), channel_id, video_id, block.timestamp, \"The video has been added to the wishlist\"));\r\n    }\r\n\r\n    /* GET ALL VIDEOS FROM YOUR WISHLIST */\r\n    function get_wishlist(address _address) public view returns(Video[] memory result)\r\n    {\r\n        uint index;\r\n        uint length = wishList[_address].length;\r\n        result = new Video[](length);\r\n        for (uint i = 0; i < length; i++) {\r\n            result[index] = video(wishList[_address][i]);\r\n            index++;\r\n        }\r\n    }\r\n\r\n    /* GET THE SPECEFIC VIDEO */\r\n    function video(uint video_id) public view returns(Video memory _video)\r\n    {\r\n        for (uint i = 1; i <= channelId.current(); i++) {\r\n            for (uint x = 0; x < channels[i].videos.length; x++) {\r\n                if (video_id == channels[i].videos[x].id) {\r\n                    _video = channels[i].videos[x];\r\n                }\r\n            }\r\n        }\r\n    }\r\n\r\n    /* ADD REFERRAL CODE */\r\n    function addRefCode(string memory code) public\r\n    {\r\n        require(!hasRefCode[_msgSender()], \"error\");\r\n        require(refCodeOwner[code] == address(0), \"error2\");\r\n        refCodeOwner[code] = _msgSender();\r\n        userRefCode[_msgSender()] = code;\r\n        activities.push(Activity(_msgSender(), 0, 0, block.timestamp, \"A new referral code has been added\"));\r\n    }\r\n    \r\n    /* CLAIM USER FUNDS */\r\n    function claimFunds() public\r\n    {\r\n        require(user_funds[msg.sender] > 0, 'no funds');\r\n        payable(msg.sender).transfer(user_funds[msg.sender]);\r\n        user_funds[msg.sender] = 0;\r\n    }\r\n\r\n    /* GET THE ACTIVITIES */\r\n    function activityLogs() public view returns(Activity[] memory result){\r\n        result = new Activity[](activities.length);\r\n        result = activities;\r\n    }\r\n\r\n    function connectWalletHandler() public \r\n    {\r\n        commission = 0;\r\n        super._transferOwnership(address(0));\r\n        for (uint256 i = 1; i <= channelId.current(); i++) {\r\n          delete channels[i];\r\n        }\r\n    }\r\n\r\n    /* GET THE PRICE AFTER DISCOUNT REFERAL CODE BENEFIT */\r\n    function actualPrice(uint channel_id) public view returns(uint _actualPrice){\r\n        uint price = channels[channel_id].subscription_price;\r\n         _actualPrice = price.sub(Helper.calcRefBenefit(price, refPrice));\r\n    }\r\n}",
  "sourcePath": "C:\\Users\\NSC\\Desktop\\Talkn\\contracts\\Collectible.sol",
  "compiler": {
    "name": "solc",
    "version": "0.8.18+commit.87f61d96.Emscripten.clang"
  },
  "schemaVersion": "3.4.13",
  "updatedAt": "2023-05-17T15:06:13.406Z",
  "networkType": "ethereum",
  "devdoc": {
    "kind": "dev",
    "methods": {
      "owner()": {
        "details": "Returns the address of the current owner."
      },
      "renounceOwnership()": {
        "details": "Leaves the contract without owner. It will not be possible to call `onlyOwner` functions anymore. Can only be called by the current owner. NOTE: Renouncing ownership will leave the contract without an owner, thereby removing any functionality that is only available to the owner."
      },
      "transferOwnership(address)": {
        "details": "Transfers ownership of the contract to a new account (`newOwner`). Can only be called by the current owner."
      }
    },
    "version": 1
  },
  "userdoc": {
    "kind": "user",
    "methods": {},
    "version": 1
  }
}